{
  "_format": "hh-sol-artifact-1",
  "contractName": "CashCows",
  "sourceName": "contracts/CashCows/CashCows.sol",
  "abi": [
    {
      "inputs": [
        {
          "internalType": "string",
          "name": "preview",
          "type": "string"
        },
        {
          "internalType": "address",
          "name": "admin",
          "type": "address"
        }
      ],
      "stateMutability": "nonpayable",
      "type": "constructor"
    },
    {
      "inputs": [],
      "name": "ApprovalOwnerIsOperator",
      "type": "error"
    },
    {
      "inputs": [],
      "name": "ApprovalToCurrentOwner",
      "type": "error"
    },
    {
      "inputs": [],
      "name": "BalanceQueryZeroAddress",
      "type": "error"
    },
    {
      "inputs": [],
      "name": "ERC721ReceiverNotReceived",
      "type": "error"
    },
    {
      "inputs": [],
      "name": "InvalidCall",
      "type": "error"
    },
    {
      "inputs": [],
      "name": "NonExistentToken",
      "type": "error"
    },
    {
      "inputs": [],
      "name": "NotERC721Receiver",
      "type": "error"
    },
    {
      "anonymous": false,
      "inputs": [
        {
          "indexed": true,
          "internalType": "address",
          "name": "owner",
          "type": "address"
        },
        {
          "indexed": true,
          "internalType": "address",
          "name": "approved",
          "type": "address"
        },
        {
          "indexed": true,
          "internalType": "uint256",
          "name": "tokenId",
          "type": "uint256"
        }
      ],
      "name": "Approval",
      "type": "event"
    },
    {
      "anonymous": false,
      "inputs": [
        {
          "indexed": true,
          "internalType": "address",
          "name": "owner",
          "type": "address"
        },
        {
          "indexed": true,
          "internalType": "address",
          "name": "operator",
          "type": "address"
        },
        {
          "indexed": false,
          "internalType": "bool",
          "name": "approved",
          "type": "bool"
        }
      ],
      "name": "ApprovalForAll",
      "type": "event"
    },
    {
      "anonymous": false,
      "inputs": [
        {
          "indexed": true,
          "internalType": "address",
          "name": "previousOwner",
          "type": "address"
        },
        {
          "indexed": true,
          "internalType": "address",
          "name": "newOwner",
          "type": "address"
        }
      ],
      "name": "OwnershipTransferred",
      "type": "event"
    },
    {
      "anonymous": false,
      "inputs": [
        {
          "indexed": true,
          "internalType": "bytes32",
          "name": "role",
          "type": "bytes32"
        },
        {
          "indexed": true,
          "internalType": "bytes32",
          "name": "previousAdminRole",
          "type": "bytes32"
        },
        {
          "indexed": true,
          "internalType": "bytes32",
          "name": "newAdminRole",
          "type": "bytes32"
        }
      ],
      "name": "RoleAdminChanged",
      "type": "event"
    },
    {
      "anonymous": false,
      "inputs": [
        {
          "indexed": true,
          "internalType": "bytes32",
          "name": "role",
          "type": "bytes32"
        },
        {
          "indexed": true,
          "internalType": "address",
          "name": "account",
          "type": "address"
        },
        {
          "indexed": true,
          "internalType": "address",
          "name": "sender",
          "type": "address"
        }
      ],
      "name": "RoleGranted",
      "type": "event"
    },
    {
      "anonymous": false,
      "inputs": [
        {
          "indexed": true,
          "internalType": "bytes32",
          "name": "role",
          "type": "bytes32"
        },
        {
          "indexed": true,
          "internalType": "address",
          "name": "account",
          "type": "address"
        },
        {
          "indexed": true,
          "internalType": "address",
          "name": "sender",
          "type": "address"
        }
      ],
      "name": "RoleRevoked",
      "type": "event"
    },
    {
      "anonymous": false,
      "inputs": [
        {
          "indexed": true,
          "internalType": "address",
          "name": "from",
          "type": "address"
        },
        {
          "indexed": true,
          "internalType": "address",
          "name": "to",
          "type": "address"
        },
        {
          "indexed": true,
          "internalType": "uint256",
          "name": "tokenId",
          "type": "uint256"
        }
      ],
      "name": "Transfer",
      "type": "event"
    },
    {
      "inputs": [],
      "name": "DEFAULT_ADMIN_ROLE",
      "outputs": [
        {
          "internalType": "bytes32",
          "name": "",
          "type": "bytes32"
        }
      ],
      "stateMutability": "view",
      "type": "function"
    },
    {
      "inputs": [],
      "name": "MAX_FREE_PER_WALLET",
      "outputs": [
        {
          "internalType": "uint256",
          "name": "",
          "type": "uint256"
        }
      ],
      "stateMutability": "view",
      "type": "function"
    },
    {
      "inputs": [],
      "name": "MAX_PER_WALLET",
      "outputs": [
        {
          "internalType": "uint256",
          "name": "",
          "type": "uint256"
        }
      ],
      "stateMutability": "view",
      "type": "function"
    },
    {
      "inputs": [],
      "name": "MAX_SUPPLY",
      "outputs": [
        {
          "internalType": "uint16",
          "name": "",
          "type": "uint16"
        }
      ],
      "stateMutability": "view",
      "type": "function"
    },
    {
      "inputs": [],
      "name": "MINT_PRICE",
      "outputs": [
        {
          "internalType": "uint256",
          "name": "",
          "type": "uint256"
        }
      ],
      "stateMutability": "view",
      "type": "function"
    },
    {
      "inputs": [],
      "name": "ROYALTY_FOR_ALL",
      "outputs": [
        {
          "internalType": "uint256",
          "name": "",
          "type": "uint256"
        }
      ],
      "stateMutability": "view",
      "type": "function"
    },
    {
      "inputs": [],
      "name": "TREASURY",
      "outputs": [
        {
          "internalType": "address",
          "name": "",
          "type": "address"
        }
      ],
      "stateMutability": "view",
      "type": "function"
    },
    {
      "inputs": [
        {
          "internalType": "address",
          "name": "to",
          "type": "address"
        },
        {
          "internalType": "uint256",
          "name": "tokenId",
          "type": "uint256"
        }
      ],
      "name": "approve",
      "outputs": [],
      "stateMutability": "nonpayable",
      "type": "function"
    },
    {
      "inputs": [
        {
          "internalType": "address",
          "name": "owner",
          "type": "address"
        }
      ],
      "name": "balanceOf",
      "outputs": [
        {
          "internalType": "uint256",
          "name": "",
          "type": "uint256"
        }
      ],
      "stateMutability": "view",
      "type": "function"
    },
    {
      "inputs": [
        {
          "internalType": "uint256",
          "name": "tokenId",
          "type": "uint256"
        }
      ],
      "name": "getApproved",
      "outputs": [
        {
          "internalType": "address",
          "name": "",
          "type": "address"
        }
      ],
      "stateMutability": "view",
      "type": "function"
    },
    {
      "inputs": [
        {
          "internalType": "bytes32",
          "name": "role",
          "type": "bytes32"
        }
      ],
      "name": "getRoleAdmin",
      "outputs": [
        {
          "internalType": "bytes32",
          "name": "",
          "type": "bytes32"
        }
      ],
      "stateMutability": "view",
      "type": "function"
    },
    {
      "inputs": [
        {
          "internalType": "bytes32",
          "name": "role",
          "type": "bytes32"
        },
        {
          "internalType": "address",
          "name": "account",
          "type": "address"
        }
      ],
      "name": "grantRole",
      "outputs": [],
      "stateMutability": "nonpayable",
      "type": "function"
    },
    {
      "inputs": [
        {
          "internalType": "bytes32",
          "name": "role",
          "type": "bytes32"
        },
        {
          "internalType": "address",
          "name": "account",
          "type": "address"
        }
      ],
      "name": "hasRole",
      "outputs": [
        {
          "internalType": "bool",
          "name": "",
          "type": "bool"
        }
      ],
      "stateMutability": "view",
      "type": "function"
    },
    {
      "inputs": [
        {
          "internalType": "address",
          "name": "owner",
          "type": "address"
        },
        {
          "internalType": "address",
          "name": "operator",
          "type": "address"
        }
      ],
      "name": "isApprovedForAll",
      "outputs": [
        {
          "internalType": "bool",
          "name": "",
          "type": "bool"
        }
      ],
      "stateMutability": "view",
      "type": "function"
    },
    {
      "inputs": [
        {
          "internalType": "address",
          "name": "recipient",
          "type": "address"
        },
        {
          "internalType": "uint256",
          "name": "quantity",
          "type": "uint256"
        }
      ],
      "name": "mint",
      "outputs": [],
      "stateMutability": "nonpayable",
      "type": "function"
    },
    {
      "inputs": [
        {
          "internalType": "uint256",
          "name": "quantity",
          "type": "uint256"
        },
        {
          "internalType": "uint256",
          "name": "maxMint",
          "type": "uint256"
        },
        {
          "internalType": "uint256",
          "name": "maxFree",
          "type": "uint256"
        },
        {
          "internalType": "bytes",
          "name": "proof",
          "type": "bytes"
        }
      ],
      "name": "mint",
      "outputs": [],
      "stateMutability": "payable",
      "type": "function"
    },
    {
      "inputs": [
        {
          "internalType": "uint256",
          "name": "quantity",
          "type": "uint256"
        }
      ],
      "name": "mint",
      "outputs": [],
      "stateMutability": "payable",
      "type": "function"
    },
    {
      "inputs": [
        {
          "internalType": "address",
          "name": "",
          "type": "address"
        }
      ],
      "name": "minted",
      "outputs": [
        {
          "internalType": "uint256",
          "name": "",
          "type": "uint256"
        }
      ],
      "stateMutability": "view",
      "type": "function"
    },
    {
      "inputs": [],
      "name": "name",
      "outputs": [
        {
          "internalType": "string",
          "name": "",
          "type": "string"
        }
      ],
      "stateMutability": "pure",
      "type": "function"
    },
    {
      "inputs": [
        {
          "internalType": "address",
          "name": "from",
          "type": "address"
        },
        {
          "internalType": "address",
          "name": "to",
          "type": "address"
        },
        {
          "internalType": "uint256",
          "name": "tokenId",
          "type": "uint256"
        },
        {
          "internalType": "bytes",
          "name": "_data",
          "type": "bytes"
        }
      ],
      "name": "operatorTransferFrom",
      "outputs": [],
      "stateMutability": "nonpayable",
      "type": "function"
    },
    {
      "inputs": [],
      "name": "owner",
      "outputs": [
        {
          "internalType": "address",
          "name": "",
          "type": "address"
        }
      ],
      "stateMutability": "view",
      "type": "function"
    },
    {
      "inputs": [
        {
          "internalType": "uint256",
          "name": "tokenId",
          "type": "uint256"
        }
      ],
      "name": "ownerOf",
      "outputs": [
        {
          "internalType": "address",
          "name": "",
          "type": "address"
        }
      ],
      "stateMutability": "view",
      "type": "function"
    },
    {
      "inputs": [
        {
          "internalType": "address",
          "name": "owner",
          "type": "address"
        },
        {
          "internalType": "uint256[]",
          "name": "tokenIds",
          "type": "uint256[]"
        }
      ],
      "name": "ownsAll",
      "outputs": [
        {
          "internalType": "bool",
          "name": "",
          "type": "bool"
        }
      ],
      "stateMutability": "view",
      "type": "function"
    },
    {
      "inputs": [],
      "name": "renounceOwnership",
      "outputs": [],
      "stateMutability": "nonpayable",
      "type": "function"
    },
    {
      "inputs": [
        {
          "internalType": "bytes32",
          "name": "role",
          "type": "bytes32"
        },
        {
          "internalType": "address",
          "name": "account",
          "type": "address"
        }
      ],
      "name": "renounceRole",
      "outputs": [],
      "stateMutability": "nonpayable",
      "type": "function"
    },
    {
      "inputs": [
        {
          "internalType": "bytes32",
          "name": "role",
          "type": "bytes32"
        },
        {
          "internalType": "address",
          "name": "account",
          "type": "address"
        }
      ],
      "name": "revokeRole",
      "outputs": [],
      "stateMutability": "nonpayable",
      "type": "function"
    },
    {
      "inputs": [
        {
          "internalType": "uint256",
          "name": "_tokenId",
          "type": "uint256"
        },
        {
          "internalType": "uint256",
          "name": "_salePrice",
          "type": "uint256"
        }
      ],
      "name": "royaltyInfo",
      "outputs": [
        {
          "internalType": "address",
          "name": "receiver",
          "type": "address"
        },
        {
          "internalType": "uint256",
          "name": "royaltyAmount",
          "type": "uint256"
        }
      ],
      "stateMutability": "view",
      "type": "function"
    },
    {
      "inputs": [
        {
          "internalType": "address",
          "name": "from",
          "type": "address"
        },
        {
          "internalType": "address",
          "name": "to",
          "type": "address"
        },
        {
          "internalType": "uint256",
          "name": "tokenId",
          "type": "uint256"
        }
      ],
      "name": "safeTransferFrom",
      "outputs": [],
      "stateMutability": "nonpayable",
      "type": "function"
    },
    {
      "inputs": [
        {
          "internalType": "address",
          "name": "from",
          "type": "address"
        },
        {
          "internalType": "address",
          "name": "to",
          "type": "address"
        },
        {
          "internalType": "uint256",
          "name": "tokenId",
          "type": "uint256"
        },
        {
          "internalType": "bytes",
          "name": "_data",
          "type": "bytes"
        }
      ],
      "name": "safeTransferFrom",
      "outputs": [],
      "stateMutability": "nonpayable",
      "type": "function"
    },
    {
      "inputs": [],
      "name": "saleStarted",
      "outputs": [
        {
          "internalType": "bool",
          "name": "",
          "type": "bool"
        }
      ],
      "stateMutability": "view",
      "type": "function"
    },
    {
      "inputs": [
        {
          "internalType": "address",
          "name": "operator",
          "type": "address"
        },
        {
          "internalType": "bool",
          "name": "approved",
          "type": "bool"
        }
      ],
      "name": "setApprovalForAll",
      "outputs": [],
      "stateMutability": "nonpayable",
      "type": "function"
    },
    {
      "inputs": [
        {
          "internalType": "string",
          "name": "uri",
          "type": "string"
        }
      ],
      "name": "setBaseURI",
      "outputs": [],
      "stateMutability": "nonpayable",
      "type": "function"
    },
    {
      "inputs": [
        {
          "internalType": "bool",
          "name": "yes",
          "type": "bool"
        }
      ],
      "name": "startSale",
      "outputs": [],
      "stateMutability": "nonpayable",
      "type": "function"
    },
    {
      "inputs": [
        {
          "internalType": "bytes4",
          "name": "interfaceId",
          "type": "bytes4"
        }
      ],
      "name": "supportsInterface",
      "outputs": [
        {
          "internalType": "bool",
          "name": "",
          "type": "bool"
        }
      ],
      "stateMutability": "view",
      "type": "function"
    },
    {
      "inputs": [],
      "name": "symbol",
      "outputs": [
        {
          "internalType": "string",
          "name": "",
          "type": "string"
        }
      ],
      "stateMutability": "pure",
      "type": "function"
    },
    {
      "inputs": [
        {
          "internalType": "uint256",
          "name": "tokenId",
          "type": "uint256"
        }
      ],
      "name": "tokenURI",
      "outputs": [
        {
          "internalType": "string",
          "name": "",
          "type": "string"
        }
      ],
      "stateMutability": "view",
      "type": "function"
    },
    {
      "inputs": [],
      "name": "totalSupply",
      "outputs": [
        {
          "internalType": "uint256",
          "name": "",
          "type": "uint256"
        }
      ],
      "stateMutability": "view",
      "type": "function"
    },
    {
      "inputs": [
        {
          "internalType": "address",
          "name": "from",
          "type": "address"
        },
        {
          "internalType": "address",
          "name": "to",
          "type": "address"
        },
        {
          "internalType": "uint256",
          "name": "tokenId",
          "type": "uint256"
        }
      ],
      "name": "transferFrom",
      "outputs": [],
      "stateMutability": "nonpayable",
      "type": "function"
    },
    {
      "inputs": [
        {
          "internalType": "address",
          "name": "newOwner",
          "type": "address"
        }
      ],
      "name": "transferOwnership",
      "outputs": [],
      "stateMutability": "nonpayable",
      "type": "function"
    },
    {
      "inputs": [
        {
          "internalType": "uint256",
          "name": "percent",
          "type": "uint256"
        }
      ],
      "name": "updateRoyalty",
      "outputs": [],
      "stateMutability": "nonpayable",
      "type": "function"
    },
    {
      "inputs": [
        {
          "internalType": "address",
          "name": "treasury",
          "type": "address"
        }
      ],
      "name": "updateTreasury",
      "outputs": [],
      "stateMutability": "nonpayable",
      "type": "function"
    },
    {
      "inputs": [
        {
          "internalType": "address",
          "name": "recipient",
          "type": "address"
        }
      ],
      "name": "withdraw",
      "outputs": [],
      "stateMutability": "nonpayable",
      "type": "function"
    }
  ],
  "bytecode": "0x60806040526103e86008553480156200001757600080fd5b5060405162002ec238038062002ec28339810160408190526200003a9162000236565b620000453362000075565b600160025562000057600082620000c5565b81516200006c9060099060208501906200015d565b50505062000364565b600080546001600160a01b038381166001600160a01b0319831681178455604051919092169283917f8be0079c531659141344cd1fd0a4f28419497f9722a3daafe3b4186f6b6457e09190a35050565b620000d18282620000d5565b5050565b60008281526001602090815260408083206001600160a01b038516845290915290205460ff16620000d15760008281526001602081815260408084206001600160a01b0386168086529252808420805460ff19169093179092559051339285917f2f8788117e7eff1d82e926ec794901d17c78024a50270940304540a733656f0d9190a45050565b8280546200016b9062000327565b90600052602060002090601f0160209004810192826200018f5760008555620001da565b82601f10620001aa57805160ff1916838001178555620001da565b82800160010185558215620001da579182015b82811115620001da578251825591602001919060010190620001bd565b50620001e8929150620001ec565b5090565b5b80821115620001e85760008155600101620001ed565b634e487b7160e01b600052604160045260246000fd5b80516001600160a01b03811681146200023157600080fd5b919050565b600080604083850312156200024a57600080fd5b82516001600160401b03808211156200026257600080fd5b818501915085601f8301126200027757600080fd5b8151818111156200028c576200028c62000203565b604051601f8201601f19908116603f01168101908382118183101715620002b757620002b762000203565b81604052828152602093508884848701011115620002d457600080fd5b600091505b82821015620002f85784820184015181830185015290830190620002d9565b828211156200030a5760008484830101525b95506200031c91505085820162000219565b925050509250929050565b600181811c908216806200033c57607f821691505b602082108114156200035e57634e487b7160e01b600052602260045260246000fd5b50919050565b612b4e80620003746000396000f3fe6080604052600436106102515760003560e01c80636352211e11610139578063a0712d68116100b6578063c002d23d1161007a578063c002d23d1461071d578063c87b56dd14610738578063d547741f14610758578063dab0dbfb14610778578063e985e9c514610798578063f2fde38b146107b857600080fd5b8063a0712d6814610695578063a217fddf146106a8578063a22cb465146106bd578063ad94d901146106dd578063b88d4fde146106fd57600080fd5b80638fffd8b5116100fd5780638fffd8b5146105f457806391d148541461061457806395d89b411461063457806398710d1e146106605780639c4c557c1461067557600080fd5b80636352211e1461056157806370a0823114610581578063715018a6146105a15780637f51bb1f146105b65780638da5cb5b146105d657600080fd5b80632d2c5565116101d257806340c10f191161019657806340c10f19146104b457806342842e0e146104d45780634a9eee69146104f457806351cff8d91461050757806355f804b3146105275780635c474f9e1461054757600080fd5b80632d2c5565146104155780632f2ff15d1461043557806332cb6b0c1461045557806332dc2b2f1461047e57806336568abe1461049457600080fd5b806318160ddd1161021957806318160ddd146103435780631e7269c51461035857806323b872dd14610385578063248a9ca3146103a55780632a55205a146103d657600080fd5b806301ffc9a71461025657806306fdde031461028b578063081812fc146102c6578063095ea7b3146102fe5780630f2cdd6c14610320575b600080fd5b34801561026257600080fd5b50610276610271366004612335565b6107d8565b60405190151581526020015b60405180910390f35b34801561029757600080fd5b506040805180820190915260098152684361736820436f777360b81b60208201525b60405161028291906123aa565b3480156102d257600080fd5b506102e66102e13660046123bd565b61081e565b6040516001600160a01b039091168152602001610282565b34801561030a57600080fd5b5061031e6103193660046123f2565b610862565b005b34801561032c57600080fd5b50610335600a81565b604051908152602001610282565b34801561034f57600080fd5b50600354610335565b34801561036457600080fd5b5061033561037336600461241c565b600a6020526000908152604090205481565b34801561039157600080fd5b5061031e6103a0366004612437565b6108f2565b3480156103b157600080fd5b506103356103c03660046123bd565b6000908152600160208190526040909120015490565b3480156103e257600080fd5b506103f66103f1366004612473565b610903565b604080516001600160a01b039093168352602083019190915201610282565b34801561042157600080fd5b50600d546102e6906001600160a01b031681565b34801561044157600080fd5b5061031e610450366004612495565b61097a565b34801561046157600080fd5b5061046b611e6181565b60405161ffff9091168152602001610282565b34801561048a57600080fd5b5061033560085481565b3480156104a057600080fd5b5061031e6104af366004612495565b6109a1565b3480156104c057600080fd5b5061031e6104cf3660046123f2565b610a24565b3480156104e057600080fd5b5061031e6104ef366004612437565b610ac8565b61031e610502366004612580565b610ae3565b34801561051357600080fd5b5061031e61052236600461241c565b610d66565b34801561053357600080fd5b5061031e6105423660046125da565b610e22565b34801561055357600080fd5b50600b546102769060ff1681565b34801561056d57600080fd5b506102e661057c3660046123bd565b610e4e565b34801561058d57600080fd5b5061033561059c36600461241c565b610f0b565b3480156105ad57600080fd5b5061031e610f50565b3480156105c257600080fd5b5061031e6105d136600461241c565b610f86565b3480156105e257600080fd5b506000546001600160a01b03166102e6565b34801561060057600080fd5b5061031e61060f3660046123bd565b610fc2565b34801561062057600080fd5b5061027661062f366004612495565b611004565b34801561064057600080fd5b506040805180820190915260038152624d4f4f60e81b60208201526102b9565b34801561066c57600080fd5b50610335600381565b34801561068157600080fd5b5061031e610690366004612633565b61102f565b61031e6106a33660046123bd565b61105c565b3480156106b457600080fd5b50610335600081565b3480156106c957600080fd5b5061031e6106d836600461264e565b611206565b3480156106e957600080fd5b506102766106f8366004612678565b611211565b34801561070957600080fd5b5061031e610718366004612731565b61127e565b34801561072957600080fd5b506103356611c37937e0800081565b34801561074457600080fd5b506102b96107533660046123bd565b61128a565b34801561076457600080fd5b5061031e610773366004612495565b611389565b34801561078457600080fd5b5061031e610793366004612731565b6113b0565b3480156107a457600080fd5b506102766107b3366004612781565b61140d565b3480156107c457600080fd5b5061031e6107d336600461241c565b61143b565b60006001600160e01b03198216635b5e139f60e01b148061080957506001600160e01b0319821663152a902d60e11b145b806108185750610818826114d6565b92915050565b6000610829826114fb565b61084657604051634a1850bf60e11b815260040160405180910390fd5b506000908152600660205260409020546001600160a01b031690565b600061086d82610e4e565b9050806001600160a01b0316836001600160a01b031614156108a25760405163250fdee360e21b815260040160405180910390fd5b336001600160a01b03821681148015906108c357506108c1828261140d565b155b156108e15760405163250fdee360e21b815260040160405180910390fd5b6108ec848484611510565b50505050565b6108fe3384848461156c565b505050565b600d5460009081906001600160a01b031615806109265750610924846114fb565b155b156109445760405163574b16a760e11b815260040160405180910390fd5b600d546008546001600160a01b03909116906127109061096490866127c1565b61096e91906127f6565b915091505b9250929050565b60008281526001602081905260409091200154610997813361159f565b6108fe8383611603565b6001600160a01b0381163314610a165760405162461bcd60e51b815260206004820152602f60248201527f416363657373436f6e74726f6c3a2063616e206f6e6c792072656e6f756e636560448201526e103937b632b9903337b91039b2b63360891b60648201526084015b60405180910390fd5b610a20828261166e565b5050565b7f9f2df0fed2c77648de5860a4cc508cd0818c85b8b8a1ab4ceeef8d981c8956a6610a4f813361159f565b600280541415610a715760405162461bcd60e51b8152600401610a0d9061280a565b60028055811580610a965750611e6182610a8a60035490565b610a949190612841565b115b15610ab45760405163574b16a760e11b815260040160405180910390fd5b610abe83836116d5565b5050600160025550565b6108fe8383836040518060200160405280600081525061127e565b600280541415610b055760405162461bcd60e51b8152600401610a0d9061280a565b6002805533841580610b1657508284105b80610b4357506001600160a01b0381166000908152600a60205260409020548490610b419087612841565b115b80610b625750611e6185610b5660035490565b610b609190612841565b115b80610c415750604051631b5a5b9d60e21b60208201526bffffffffffffffffffffffff19606083901b1660248201526038810185905260588101849052610c3f907f9f2df0fed2c77648de5860a4cc508cd0818c85b8b8a1ab4ceeef8d981c8956a69061062f90610c3990607801604051602081830303815290604052805190602001206040517f19457468657265756d205369676e6564204d6573736167653a0a3332000000006020820152603c8101829052600090605c01604051602081830303815290604052805190602001209050919050565b856116ef565b155b15610c5f5760405163574b16a760e11b815260040160405180910390fd5b6001600160a01b0381166000908152600a6020526040902054831115610cf1576001600160a01b0381166000908152600a6020526040812054610ca29085612859565b90508581108015610ccd5750346611c37937e08000610cc18389612859565b610ccb91906127c1565b115b15610ceb5760405163574b16a760e11b815260040160405180910390fd5b50610d22565b34610d036611c37937e08000876127c1565b1115610d225760405163574b16a760e11b815260040160405180910390fd5b6001600160a01b0381166000908152600a602052604081208054879290610d4a908490612841565b90915550610d5a905081866116d5565b50506001600255505050565b6000546001600160a01b03163314610d905760405162461bcd60e51b8152600401610a0d90612870565b600280541415610db25760405162461bcd60e51b8152600401610a0d9061280a565b60028055600c8054610dc3906128a5565b15159050610de45760405163574b16a760e11b815260040160405180910390fd5b6040516001600160a01b038216904780156108fc02916000818181858888f19350505050158015610e19573d6000803e3d6000fd5b50506001600255565b600080516020612af9833981519152610e3b813361159f565b81516108fe90600c906020850190612286565b60008181526004602052604081205482906001600160a01b031615610e8b576000908152600460205260409020546001600160a01b031692915050565b600081118015610e9d57506003548111155b15610ef1575b6000190180610eb157610ef1565b6000818152600460205260409020546001600160a01b031615610eec576000908152600460205260409020546001600160a01b031692915050565b610ea3565b50604051634a1850bf60e11b815260040160405180910390fd5b60006001600160a01b038216610f34576040516316285dcb60e11b815260040160405180910390fd5b506001600160a01b031660009081526005602052604090205490565b6000546001600160a01b03163314610f7a5760405162461bcd60e51b8152600401610a0d90612870565b610f846000611713565b565b600080516020612af9833981519152610f9f813361159f565b50600d80546001600160a01b0319166001600160a01b0392909216919091179055565b600080516020612af9833981519152610fdb813361159f565b6103e8821115610ffe5760405163574b16a760e11b815260040160405180910390fd5b50600855565b60009182526001602090815260408084206001600160a01b0393909316845291905290205460ff1690565b600080516020612af9833981519152611048813361159f565b50600b805460ff1916911515919091179055565b60028054141561107e5760405162461bcd60e51b8152600401610a0d9061280a565b6002805533803b1515806110955750600b5460ff16155b8061109e575081155b806110cc57506001600160a01b0381166000908152600a60208190526040909120546110ca9084612841565b115b806110eb5750611e61826110df60035490565b6110e99190612841565b115b156111095760405163574b16a760e11b815260040160405180910390fd5b6001600160a01b0381166000908152600a60205260409020546003111561119d576001600160a01b0381166000908152600a602052604081205461114e906003612859565b905082811080156111795750346611c37937e0800061116d8386612859565b61117791906127c1565b115b156111975760405163574b16a760e11b815260040160405180910390fd5b506111ce565b346111af6611c37937e08000846127c1565b11156111ce5760405163574b16a760e11b815260040160405180910390fd5b6001600160a01b0381166000908152600a6020526040812080548492906111f6908490612841565b90915550610e19905081836116d5565b610a20338383611763565b6000805b825181101561127457611240838281518110611233576112336128e0565b6020026020010151610e4e565b6001600160a01b0316846001600160a01b031614611262576000915050610818565b8061126c816128f6565b915050611215565b5060019392505050565b6108ec84848484611803565b6060611295826114fb565b6112b25760405163574b16a760e11b815260040160405180910390fd5b6000600c80546112c1906128a5565b90501161135857600980546112d5906128a5565b80601f0160208091040260200160405190810160405280929190818152602001828054611301906128a5565b801561134e5780601f106113235761010080835404028352916020019161134e565b820191906000526020600020905b81548152906001019060200180831161133157829003601f168201915b5050505050610818565b600c61136383611850565b60405160200161137492919061292d565b60405160208183030381529060405292915050565b600082815260016020819052604090912001546113a6813361159f565b6108fe838361166e565b7f8502233096d909befbda0999bb8ea2f3a6be3c138b9fbf003752a4c8bce86f6c6113db813361159f565b333b6113fa5760405163574b16a760e11b815260040160405180910390fd5b61140685858585611956565b5050505050565b6001600160a01b03918216600090815260076020908152604080832093909416825291909152205460ff1690565b6000546001600160a01b031633146114655760405162461bcd60e51b8152600401610a0d90612870565b6001600160a01b0381166114ca5760405162461bcd60e51b815260206004820152602660248201527f4f776e61626c653a206e6577206f776e657220697320746865207a65726f206160448201526564647265737360d01b6064820152608401610a0d565b6114d381611713565b50565b60006001600160e01b031982166380ac58cd60e01b1480610818575061081882611961565b60008082118015610818575050600354101590565b60008281526006602052604080822080546001600160a01b0319166001600160a01b0387811691821790925591518593918516917f8c5be1e5ebec7d5bd14f71427d1e84f3dd0314c0f7b2291e5b200ac8c7c3b92591a4505050565b611577848285611996565b6115945760405163574b16a760e11b815260040160405180910390fd5b6108ec8383836119e1565b6115a98282611004565b610a20576115c1816001600160a01b03166014611b2b565b6115cc836020611b2b565b6040516020016115dd9291906129e8565b60408051601f198184030181529082905262461bcd60e51b8252610a0d916004016123aa565b61160d8282611004565b610a205760008281526001602081815260408084206001600160a01b0386168086529252808420805460ff19169093179092559051339285917f2f8788117e7eff1d82e926ec794901d17c78024a50270940304540a733656f0d9190a45050565b6116788282611004565b15610a205760008281526001602090815260408083206001600160a01b0385168085529252808320805460ff1916905551339285917ff6391f5c32d9c69d2a47ea670b442974b53935d1edc7fd64eb21e047a839171b9190a45050565b610a20828260405180602001604052806000815250611cce565b60008060006116fe8585611cdb565b9150915061170b81611d48565b509392505050565b600080546001600160a01b038381166001600160a01b0319831681178455604051919092169283917f8be0079c531659141344cd1fd0a4f28419497f9722a3daafe3b4186f6b6457e09190a35050565b816001600160a01b0316836001600160a01b031614156117965760405163079f14e360e51b815260040160405180910390fd5b6001600160a01b03838116600081815260076020908152604080832094871680845294825291829020805460ff191686151590811790915591519182527f17307eab39ab6107e8899845ad3d59bd9653f200f220920489ca2b5937696c31910160405180910390a3505050565b61180f3385858561156c565b6000836001600160a01b03163b118015611832575061183084848484611f03565b155b156108ec57604051631f11849560e21b815260040160405180910390fd5b6060816118745750506040805180820190915260018152600360fc1b602082015290565b8160005b811561189e5780611888816128f6565b91506118979050600a836127f6565b9150611878565b60008167ffffffffffffffff8111156118b9576118b96124c1565b6040519080825280601f01601f1916602001820160405280156118e3576020820181803683370190505b5090505b841561194e576118f8600183612859565b9150611905600a86612a5d565b611910906030612841565b60f81b818381518110611925576119256128e0565b60200101906001600160f81b031916908160001a905350611947600a866127f6565b94506118e7565b949350505050565b61180f8484846119e1565b60006001600160e01b03198216637965db0b60e01b148061081857506301ffc9a760e01b6001600160e01b0319831614610818565b6000816001600160a01b0316846001600160a01b031614806119d15750836001600160a01b03166119c68461081e565b6001600160a01b0316145b8061194e575061194e828561140d565b6001600160a01b0382161580611a1157506119fb81610e4e565b6001600160a01b0316836001600160a01b031614155b15611a2f5760405163574b16a760e11b815260040160405180910390fd5b611a3b60008285611510565b6001600160a01b03808316600081815260056020908152604080832080546001908101909155948816835280832080546000190190558583526004909152902080546001600160a01b0319169091179055600354908201908111801590611ab757506000818152600460205260409020546001600160a01b0316155b15611ae457600081815260046020526040902080546001600160a01b0319166001600160a01b0386161790555b5080826001600160a01b0316846001600160a01b03167fddf252ad1be2c89b69c2b068fc378daa952ba7f163c4a11628f55a4df523b3ef60405160405180910390a4505050565b60606000611b3a8360026127c1565b611b45906002612841565b67ffffffffffffffff811115611b5d57611b5d6124c1565b6040519080825280601f01601f191660200182016040528015611b87576020820181803683370190505b509050600360fc1b81600081518110611ba257611ba26128e0565b60200101906001600160f81b031916908160001a905350600f60fb1b81600181518110611bd157611bd16128e0565b60200101906001600160f81b031916908160001a9053506000611bf58460026127c1565b611c00906001612841565b90505b6001811115611c78576f181899199a1a9b1b9c1cb0b131b232b360811b85600f1660108110611c3457611c346128e0565b1a60f81b828281518110611c4a57611c4a6128e0565b60200101906001600160f81b031916908160001a90535060049490941c93611c7181612a71565b9050611c03565b508315611cc75760405162461bcd60e51b815260206004820181905260248201527f537472696e67733a20686578206c656e67746820696e73756666696369656e746044820152606401610a0d565b9392505050565b6108fe8383836001611ffa565b600080825160411415611d125760208301516040840151606085015160001a611d068782858561216a565b94509450505050610973565b825160401415611d3c5760208301516040840151611d31868383612257565b935093505050610973565b50600090506002610973565b6000816004811115611d5c57611d5c612a88565b1415611d655750565b6001816004811115611d7957611d79612a88565b1415611dc75760405162461bcd60e51b815260206004820152601860248201527f45434453413a20696e76616c6964207369676e617475726500000000000000006044820152606401610a0d565b6002816004811115611ddb57611ddb612a88565b1415611e295760405162461bcd60e51b815260206004820152601f60248201527f45434453413a20696e76616c6964207369676e6174757265206c656e677468006044820152606401610a0d565b6003816004811115611e3d57611e3d612a88565b1415611e965760405162461bcd60e51b815260206004820152602260248201527f45434453413a20696e76616c6964207369676e6174757265202773272076616c604482015261756560f01b6064820152608401610a0d565b6004816004811115611eaa57611eaa612a88565b14156114d35760405162461bcd60e51b815260206004820152602260248201527f45434453413a20696e76616c6964207369676e6174757265202776272076616c604482015261756560f01b6064820152608401610a0d565b604051630a85bd0160e11b81526000906001600160a01b0385169063150b7a0290611f38903390899088908890600401612a9e565b602060405180830381600087803b158015611f5257600080fd5b505af1925050508015611f82575060408051601f3d908101601f19168201909252611f7f91810190612adb565b60015b611fdd573d808015611fb0576040519150601f19603f3d011682016040523d82523d6000602084013e611fb5565b606091505b508051611fd557604051630568cbab60e01b815260040160405180910390fd5b805181602001fd5b6001600160e01b031916630a85bd0160e11b149050949350505050565b82158061200e57506001600160a01b038416155b1561202c5760405163574b16a760e11b815260040160405180910390fd5b6000600354600161203d9190612841565b905060038054850190556001600160a01b03851660008181526005602090815260408083208054890190558483526004909152902080546001600160a01b03191690911790558084810183801561209e57506000876001600160a01b03163b115b1561211c575b60405182906001600160a01b038916906000907fddf252ad1be2c89b69c2b068fc378daa952ba7f163c4a11628f55a4df523b3ef908290a46120ef6000888480600101955088611f03565b61210c57604051631f11849560e21b815260040160405180910390fd5b808214156120a4575050506108ec565b5b6040516001830192906001600160a01b038916906000907fddf252ad1be2c89b69c2b068fc378daa952ba7f163c4a11628f55a4df523b3ef908290a48082141561211d5750505050505050565b6000807f7fffffffffffffffffffffffffffffff5d576e7357a4501ddfe92f46681b20a08311156121a1575060009050600361224e565b8460ff16601b141580156121b957508460ff16601c14155b156121ca575060009050600461224e565b6040805160008082526020820180845289905260ff881692820192909252606081018690526080810185905260019060a0016020604051602081039080840390855afa15801561221e573d6000803e3d6000fd5b5050604051601f1901519150506001600160a01b0381166122475760006001925092505061224e565b9150600090505b94509492505050565b6000806001600160ff1b03831660ff84901c601b016122788782888561216a565b935093505050935093915050565b828054612292906128a5565b90600052602060002090601f0160209004810192826122b457600085556122fa565b82601f106122cd57805160ff19168380011785556122fa565b828001600101855582156122fa579182015b828111156122fa5782518255916020019190600101906122df565b5061230692915061230a565b5090565b5b80821115612306576000815560010161230b565b6001600160e01b0319811681146114d357600080fd5b60006020828403121561234757600080fd5b8135611cc78161231f565b60005b8381101561236d578181015183820152602001612355565b838111156108ec5750506000910152565b60008151808452612396816020860160208601612352565b601f01601f19169290920160200192915050565b602081526000611cc7602083018461237e565b6000602082840312156123cf57600080fd5b5035919050565b80356001600160a01b03811681146123ed57600080fd5b919050565b6000806040838503121561240557600080fd5b61240e836123d6565b946020939093013593505050565b60006020828403121561242e57600080fd5b611cc7826123d6565b60008060006060848603121561244c57600080fd5b612455846123d6565b9250612463602085016123d6565b9150604084013590509250925092565b6000806040838503121561248657600080fd5b50508035926020909101359150565b600080604083850312156124a857600080fd5b823591506124b8602084016123d6565b90509250929050565b634e487b7160e01b600052604160045260246000fd5b604051601f8201601f1916810167ffffffffffffffff81118282101715612500576125006124c1565b604052919050565b600067ffffffffffffffff831115612522576125226124c1565b612535601f8401601f19166020016124d7565b905082815283838301111561254957600080fd5b828260208301376000602084830101529392505050565b600082601f83011261257157600080fd5b611cc783833560208501612508565b6000806000806080858703121561259657600080fd5b843593506020850135925060408501359150606085013567ffffffffffffffff8111156125c257600080fd5b6125ce87828801612560565b91505092959194509250565b6000602082840312156125ec57600080fd5b813567ffffffffffffffff81111561260357600080fd5b8201601f8101841361261457600080fd5b61194e84823560208401612508565b803580151581146123ed57600080fd5b60006020828403121561264557600080fd5b611cc782612623565b6000806040838503121561266157600080fd5b61266a836123d6565b91506124b860208401612623565b6000806040838503121561268b57600080fd5b612694836123d6565b915060208084013567ffffffffffffffff808211156126b257600080fd5b818601915086601f8301126126c657600080fd5b8135818111156126d8576126d86124c1565b8060051b91506126e98483016124d7565b818152918301840191848101908984111561270357600080fd5b938501935b8385101561272157843582529385019390850190612708565b8096505050505050509250929050565b6000806000806080858703121561274757600080fd5b612750856123d6565b935061275e602086016123d6565b925060408501359150606085013567ffffffffffffffff8111156125c257600080fd5b6000806040838503121561279457600080fd5b61279d836123d6565b91506124b8602084016123d6565b634e487b7160e01b600052601160045260246000fd5b60008160001904831182151516156127db576127db6127ab565b500290565b634e487b7160e01b600052601260045260246000fd5b600082612805576128056127e0565b500490565b6020808252601f908201527f5265656e7472616e637947756172643a207265656e7472616e742063616c6c00604082015260600190565b60008219821115612854576128546127ab565b500190565b60008282101561286b5761286b6127ab565b500390565b6020808252818101527f4f776e61626c653a2063616c6c6572206973206e6f7420746865206f776e6572604082015260600190565b600181811c908216806128b957607f821691505b602082108114156128da57634e487b7160e01b600052602260045260246000fd5b50919050565b634e487b7160e01b600052603260045260246000fd5b600060001982141561290a5761290a6127ab565b5060010190565b60008151612923818560208601612352565b9290920192915050565b600080845481600182811c91508083168061294957607f831692505b602080841082141561296957634e487b7160e01b86526022600452602486fd5b81801561297d576001811461298e576129bb565b60ff198616895284890196506129bb565b60008b81526020902060005b868110156129b35781548b82015290850190830161299a565b505084890196505b5050505050506129df6129ce8286612911565b64173539b7b760d91b815260050190565b95945050505050565b7f416363657373436f6e74726f6c3a206163636f756e7420000000000000000000815260008351612a20816017850160208801612352565b7001034b99036b4b9b9b4b733903937b6329607d1b6017918401918201528351612a51816028840160208801612352565b01602801949350505050565b600082612a6c57612a6c6127e0565b500690565b600081612a8057612a806127ab565b506000190190565b634e487b7160e01b600052602160045260246000fd5b6001600160a01b0385811682528416602082015260408101839052608060608201819052600090612ad19083018461237e565b9695505050505050565b600060208284031215612aed57600080fd5b8151611cc78161231f56fe850d585eb7f024ccee5e68e55f2c26cc72e1e6ee456acf62135757a5eb9d4a10a264697066735822122043cc648e8f17b665515f5dac4111450b5cb9fc47a0aeb606523d03bb90b160e364736f6c63430008090033",
  "linkReferences": {},
  "deployedLinkReferences": {}
}