{
  "_format": "hh-sol-artifact-1",
  "contractName": "CashCows",
  "sourceName": "contracts/CashCows/CashCows.sol",
  "abi": [
    {
      "inputs": [
        {
          "internalType": "string",
          "name": "preview",
          "type": "string"
        },
        {
          "internalType": "address",
          "name": "admin",
          "type": "address"
        }
      ],
      "stateMutability": "nonpayable",
      "type": "constructor"
    },
    {
      "inputs": [],
      "name": "ApprovalOwnerIsOperator",
      "type": "error"
    },
    {
      "inputs": [],
      "name": "ApprovalToCurrentOwner",
      "type": "error"
    },
    {
      "inputs": [],
      "name": "BalanceQueryZeroAddress",
      "type": "error"
    },
    {
      "inputs": [],
      "name": "ERC721ReceiverNotReceived",
      "type": "error"
    },
    {
      "inputs": [],
      "name": "InvalidCall",
      "type": "error"
    },
    {
      "inputs": [],
      "name": "NonExistentToken",
      "type": "error"
    },
    {
      "inputs": [],
      "name": "NotERC721Receiver",
      "type": "error"
    },
    {
      "anonymous": false,
      "inputs": [
        {
          "indexed": true,
          "internalType": "address",
          "name": "owner",
          "type": "address"
        },
        {
          "indexed": true,
          "internalType": "address",
          "name": "approved",
          "type": "address"
        },
        {
          "indexed": true,
          "internalType": "uint256",
          "name": "tokenId",
          "type": "uint256"
        }
      ],
      "name": "Approval",
      "type": "event"
    },
    {
      "anonymous": false,
      "inputs": [
        {
          "indexed": true,
          "internalType": "address",
          "name": "owner",
          "type": "address"
        },
        {
          "indexed": true,
          "internalType": "address",
          "name": "operator",
          "type": "address"
        },
        {
          "indexed": false,
          "internalType": "bool",
          "name": "approved",
          "type": "bool"
        }
      ],
      "name": "ApprovalForAll",
      "type": "event"
    },
    {
      "anonymous": false,
      "inputs": [
        {
          "indexed": true,
          "internalType": "address",
          "name": "previousOwner",
          "type": "address"
        },
        {
          "indexed": true,
          "internalType": "address",
          "name": "newOwner",
          "type": "address"
        }
      ],
      "name": "OwnershipTransferred",
      "type": "event"
    },
    {
      "anonymous": false,
      "inputs": [
        {
          "indexed": true,
          "internalType": "bytes32",
          "name": "role",
          "type": "bytes32"
        },
        {
          "indexed": true,
          "internalType": "bytes32",
          "name": "previousAdminRole",
          "type": "bytes32"
        },
        {
          "indexed": true,
          "internalType": "bytes32",
          "name": "newAdminRole",
          "type": "bytes32"
        }
      ],
      "name": "RoleAdminChanged",
      "type": "event"
    },
    {
      "anonymous": false,
      "inputs": [
        {
          "indexed": true,
          "internalType": "bytes32",
          "name": "role",
          "type": "bytes32"
        },
        {
          "indexed": true,
          "internalType": "address",
          "name": "account",
          "type": "address"
        },
        {
          "indexed": true,
          "internalType": "address",
          "name": "sender",
          "type": "address"
        }
      ],
      "name": "RoleGranted",
      "type": "event"
    },
    {
      "anonymous": false,
      "inputs": [
        {
          "indexed": true,
          "internalType": "bytes32",
          "name": "role",
          "type": "bytes32"
        },
        {
          "indexed": true,
          "internalType": "address",
          "name": "account",
          "type": "address"
        },
        {
          "indexed": true,
          "internalType": "address",
          "name": "sender",
          "type": "address"
        }
      ],
      "name": "RoleRevoked",
      "type": "event"
    },
    {
      "anonymous": false,
      "inputs": [
        {
          "indexed": true,
          "internalType": "address",
          "name": "from",
          "type": "address"
        },
        {
          "indexed": true,
          "internalType": "address",
          "name": "to",
          "type": "address"
        },
        {
          "indexed": true,
          "internalType": "uint256",
          "name": "tokenId",
          "type": "uint256"
        }
      ],
      "name": "Transfer",
      "type": "event"
    },
    {
      "inputs": [],
      "name": "DEFAULT_ADMIN_ROLE",
      "outputs": [
        {
          "internalType": "bytes32",
          "name": "",
          "type": "bytes32"
        }
      ],
      "stateMutability": "view",
      "type": "function"
    },
    {
      "inputs": [],
      "name": "MAX_FREE_PER_WALLET",
      "outputs": [
        {
          "internalType": "uint256",
          "name": "",
          "type": "uint256"
        }
      ],
      "stateMutability": "view",
      "type": "function"
    },
    {
      "inputs": [],
      "name": "MAX_PER_WALLET",
      "outputs": [
        {
          "internalType": "uint256",
          "name": "",
          "type": "uint256"
        }
      ],
      "stateMutability": "view",
      "type": "function"
    },
    {
      "inputs": [],
      "name": "MAX_SUPPLY",
      "outputs": [
        {
          "internalType": "uint16",
          "name": "",
          "type": "uint16"
        }
      ],
      "stateMutability": "view",
      "type": "function"
    },
    {
      "inputs": [],
      "name": "MINT_PRICE",
      "outputs": [
        {
          "internalType": "uint256",
          "name": "",
          "type": "uint256"
        }
      ],
      "stateMutability": "view",
      "type": "function"
    },
    {
      "inputs": [],
      "name": "ROYALTY_FOR_ALL",
      "outputs": [
        {
          "internalType": "uint256",
          "name": "",
          "type": "uint256"
        }
      ],
      "stateMutability": "view",
      "type": "function"
    },
    {
      "inputs": [],
      "name": "TREASURY",
      "outputs": [
        {
          "internalType": "address",
          "name": "",
          "type": "address"
        }
      ],
      "stateMutability": "view",
      "type": "function"
    },
    {
      "inputs": [
        {
          "internalType": "address",
          "name": "to",
          "type": "address"
        },
        {
          "internalType": "uint256",
          "name": "tokenId",
          "type": "uint256"
        }
      ],
      "name": "approve",
      "outputs": [],
      "stateMutability": "nonpayable",
      "type": "function"
    },
    {
      "inputs": [
        {
          "internalType": "address",
          "name": "owner",
          "type": "address"
        }
      ],
      "name": "balanceOf",
      "outputs": [
        {
          "internalType": "uint256",
          "name": "",
          "type": "uint256"
        }
      ],
      "stateMutability": "view",
      "type": "function"
    },
    {
      "inputs": [
        {
          "internalType": "uint256",
          "name": "tokenId",
          "type": "uint256"
        }
      ],
      "name": "getApproved",
      "outputs": [
        {
          "internalType": "address",
          "name": "",
          "type": "address"
        }
      ],
      "stateMutability": "view",
      "type": "function"
    },
    {
      "inputs": [
        {
          "internalType": "bytes32",
          "name": "role",
          "type": "bytes32"
        }
      ],
      "name": "getRoleAdmin",
      "outputs": [
        {
          "internalType": "bytes32",
          "name": "",
          "type": "bytes32"
        }
      ],
      "stateMutability": "view",
      "type": "function"
    },
    {
      "inputs": [
        {
          "internalType": "bytes32",
          "name": "role",
          "type": "bytes32"
        },
        {
          "internalType": "address",
          "name": "account",
          "type": "address"
        }
      ],
      "name": "grantRole",
      "outputs": [],
      "stateMutability": "nonpayable",
      "type": "function"
    },
    {
      "inputs": [
        {
          "internalType": "bytes32",
          "name": "role",
          "type": "bytes32"
        },
        {
          "internalType": "address",
          "name": "account",
          "type": "address"
        }
      ],
      "name": "hasRole",
      "outputs": [
        {
          "internalType": "bool",
          "name": "",
          "type": "bool"
        }
      ],
      "stateMutability": "view",
      "type": "function"
    },
    {
      "inputs": [
        {
          "internalType": "address",
          "name": "owner",
          "type": "address"
        },
        {
          "internalType": "address",
          "name": "operator",
          "type": "address"
        }
      ],
      "name": "isApprovedForAll",
      "outputs": [
        {
          "internalType": "bool",
          "name": "",
          "type": "bool"
        }
      ],
      "stateMutability": "view",
      "type": "function"
    },
    {
      "inputs": [
        {
          "internalType": "address",
          "name": "recipient",
          "type": "address"
        },
        {
          "internalType": "uint256",
          "name": "quantity",
          "type": "uint256"
        }
      ],
      "name": "mint",
      "outputs": [],
      "stateMutability": "nonpayable",
      "type": "function"
    },
    {
      "inputs": [
        {
          "internalType": "uint256",
          "name": "quantity",
          "type": "uint256"
        }
      ],
      "name": "mint",
      "outputs": [],
      "stateMutability": "payable",
      "type": "function"
    },
    {
      "inputs": [
        {
          "internalType": "address",
          "name": "",
          "type": "address"
        }
      ],
      "name": "minted",
      "outputs": [
        {
          "internalType": "uint256",
          "name": "",
          "type": "uint256"
        }
      ],
      "stateMutability": "view",
      "type": "function"
    },
    {
      "inputs": [],
      "name": "name",
      "outputs": [
        {
          "internalType": "string",
          "name": "",
          "type": "string"
        }
      ],
      "stateMutability": "pure",
      "type": "function"
    },
    {
      "inputs": [
        {
          "internalType": "address",
          "name": "from",
          "type": "address"
        },
        {
          "internalType": "address",
          "name": "to",
          "type": "address"
        },
        {
          "internalType": "uint256",
          "name": "tokenId",
          "type": "uint256"
        },
        {
          "internalType": "bytes",
          "name": "_data",
          "type": "bytes"
        }
      ],
      "name": "operatorTransferFrom",
      "outputs": [],
      "stateMutability": "nonpayable",
      "type": "function"
    },
    {
      "inputs": [],
      "name": "owner",
      "outputs": [
        {
          "internalType": "address",
          "name": "",
          "type": "address"
        }
      ],
      "stateMutability": "view",
      "type": "function"
    },
    {
      "inputs": [
        {
          "internalType": "uint256",
          "name": "tokenId",
          "type": "uint256"
        }
      ],
      "name": "ownerOf",
      "outputs": [
        {
          "internalType": "address",
          "name": "",
          "type": "address"
        }
      ],
      "stateMutability": "view",
      "type": "function"
    },
    {
      "inputs": [
        {
          "internalType": "address",
          "name": "owner",
          "type": "address"
        },
        {
          "internalType": "uint256[]",
          "name": "tokenIds",
          "type": "uint256[]"
        }
      ],
      "name": "ownsAll",
      "outputs": [
        {
          "internalType": "bool",
          "name": "",
          "type": "bool"
        }
      ],
      "stateMutability": "view",
      "type": "function"
    },
    {
      "inputs": [],
      "name": "renounceOwnership",
      "outputs": [],
      "stateMutability": "nonpayable",
      "type": "function"
    },
    {
      "inputs": [
        {
          "internalType": "bytes32",
          "name": "role",
          "type": "bytes32"
        },
        {
          "internalType": "address",
          "name": "account",
          "type": "address"
        }
      ],
      "name": "renounceRole",
      "outputs": [],
      "stateMutability": "nonpayable",
      "type": "function"
    },
    {
      "inputs": [
        {
          "internalType": "bytes32",
          "name": "role",
          "type": "bytes32"
        },
        {
          "internalType": "address",
          "name": "account",
          "type": "address"
        }
      ],
      "name": "revokeRole",
      "outputs": [],
      "stateMutability": "nonpayable",
      "type": "function"
    },
    {
      "inputs": [
        {
          "internalType": "uint256",
          "name": "_tokenId",
          "type": "uint256"
        },
        {
          "internalType": "uint256",
          "name": "_salePrice",
          "type": "uint256"
        }
      ],
      "name": "royaltyInfo",
      "outputs": [
        {
          "internalType": "address",
          "name": "receiver",
          "type": "address"
        },
        {
          "internalType": "uint256",
          "name": "royaltyAmount",
          "type": "uint256"
        }
      ],
      "stateMutability": "view",
      "type": "function"
    },
    {
      "inputs": [
        {
          "internalType": "address",
          "name": "from",
          "type": "address"
        },
        {
          "internalType": "address",
          "name": "to",
          "type": "address"
        },
        {
          "internalType": "uint256",
          "name": "tokenId",
          "type": "uint256"
        }
      ],
      "name": "safeTransferFrom",
      "outputs": [],
      "stateMutability": "nonpayable",
      "type": "function"
    },
    {
      "inputs": [
        {
          "internalType": "address",
          "name": "from",
          "type": "address"
        },
        {
          "internalType": "address",
          "name": "to",
          "type": "address"
        },
        {
          "internalType": "uint256",
          "name": "tokenId",
          "type": "uint256"
        },
        {
          "internalType": "bytes",
          "name": "_data",
          "type": "bytes"
        }
      ],
      "name": "safeTransferFrom",
      "outputs": [],
      "stateMutability": "nonpayable",
      "type": "function"
    },
    {
      "inputs": [],
      "name": "saleStarted",
      "outputs": [
        {
          "internalType": "bool",
          "name": "",
          "type": "bool"
        }
      ],
      "stateMutability": "view",
      "type": "function"
    },
    {
      "inputs": [
        {
          "internalType": "address",
          "name": "operator",
          "type": "address"
        },
        {
          "internalType": "bool",
          "name": "approved",
          "type": "bool"
        }
      ],
      "name": "setApprovalForAll",
      "outputs": [],
      "stateMutability": "nonpayable",
      "type": "function"
    },
    {
      "inputs": [
        {
          "internalType": "string",
          "name": "uri",
          "type": "string"
        }
      ],
      "name": "setBaseURI",
      "outputs": [],
      "stateMutability": "nonpayable",
      "type": "function"
    },
    {
      "inputs": [
        {
          "internalType": "bool",
          "name": "yes",
          "type": "bool"
        }
      ],
      "name": "startSale",
      "outputs": [],
      "stateMutability": "nonpayable",
      "type": "function"
    },
    {
      "inputs": [
        {
          "internalType": "bytes4",
          "name": "interfaceId",
          "type": "bytes4"
        }
      ],
      "name": "supportsInterface",
      "outputs": [
        {
          "internalType": "bool",
          "name": "",
          "type": "bool"
        }
      ],
      "stateMutability": "view",
      "type": "function"
    },
    {
      "inputs": [],
      "name": "symbol",
      "outputs": [
        {
          "internalType": "string",
          "name": "",
          "type": "string"
        }
      ],
      "stateMutability": "pure",
      "type": "function"
    },
    {
      "inputs": [
        {
          "internalType": "uint256",
          "name": "tokenId",
          "type": "uint256"
        }
      ],
      "name": "tokenURI",
      "outputs": [
        {
          "internalType": "string",
          "name": "",
          "type": "string"
        }
      ],
      "stateMutability": "view",
      "type": "function"
    },
    {
      "inputs": [],
      "name": "totalSupply",
      "outputs": [
        {
          "internalType": "uint256",
          "name": "",
          "type": "uint256"
        }
      ],
      "stateMutability": "view",
      "type": "function"
    },
    {
      "inputs": [
        {
          "internalType": "address",
          "name": "from",
          "type": "address"
        },
        {
          "internalType": "address",
          "name": "to",
          "type": "address"
        },
        {
          "internalType": "uint256",
          "name": "tokenId",
          "type": "uint256"
        }
      ],
      "name": "transferFrom",
      "outputs": [],
      "stateMutability": "nonpayable",
      "type": "function"
    },
    {
      "inputs": [
        {
          "internalType": "address",
          "name": "newOwner",
          "type": "address"
        }
      ],
      "name": "transferOwnership",
      "outputs": [],
      "stateMutability": "nonpayable",
      "type": "function"
    },
    {
      "inputs": [
        {
          "internalType": "address",
          "name": "treasury",
          "type": "address"
        }
      ],
      "name": "updateTreasury",
      "outputs": [],
      "stateMutability": "nonpayable",
      "type": "function"
    },
    {
      "inputs": [
        {
          "internalType": "address",
          "name": "recipient",
          "type": "address"
        }
      ],
      "name": "withdraw",
      "outputs": [],
      "stateMutability": "nonpayable",
      "type": "function"
    }
  ],
  "bytecode": "0x60806040523480156200001157600080fd5b50604051620027f2380380620027f2833981016040819052620000349162000230565b6200003f336200006f565b600160025562000051600082620000bf565b81516200006690600890602085019062000157565b5050506200035e565b600080546001600160a01b038381166001600160a01b0319831681178455604051919092169283917f8be0079c531659141344cd1fd0a4f28419497f9722a3daafe3b4186f6b6457e09190a35050565b620000cb8282620000cf565b5050565b60008281526001602090815260408083206001600160a01b038516845290915290205460ff16620000cb5760008281526001602081815260408084206001600160a01b0386168086529252808420805460ff19169093179092559051339285917f2f8788117e7eff1d82e926ec794901d17c78024a50270940304540a733656f0d9190a45050565b828054620001659062000321565b90600052602060002090601f016020900481019282620001895760008555620001d4565b82601f10620001a457805160ff1916838001178555620001d4565b82800160010185558215620001d4579182015b82811115620001d4578251825591602001919060010190620001b7565b50620001e2929150620001e6565b5090565b5b80821115620001e25760008155600101620001e7565b634e487b7160e01b600052604160045260246000fd5b80516001600160a01b03811681146200022b57600080fd5b919050565b600080604083850312156200024457600080fd5b82516001600160401b03808211156200025c57600080fd5b818501915085601f8301126200027157600080fd5b815181811115620002865762000286620001fd565b604051601f8201601f19908116603f01168101908382118183101715620002b157620002b1620001fd565b81604052828152602093508884848701011115620002ce57600080fd5b600091505b82821015620002f25784820184015181830185015290830190620002d3565b82821115620003045760008484830101525b95506200031691505085820162000213565b925050509250929050565b600181811c908216806200033657607f821691505b602082108114156200035857634e487b7160e01b600052602260045260246000fd5b50919050565b612484806200036e6000396000f3fe60806040526004361061023b5760003560e01c80636352211e1161012e578063a217fddf116100ab578063c87b56dd1161006f578063c87b56dd146106ef578063d547741f1461070f578063dab0dbfb1461072f578063e985e9c51461074f578063f2fde38b1461076f57600080fd5b8063a217fddf1461065f578063a22cb46514610674578063ad94d90114610694578063b88d4fde146106b4578063c002d23d146106d457600080fd5b806391d14854116100f257806391d14854146105cb57806395d89b41146105eb57806398710d1e146106175780639c4c557c1461062c578063a0712d681461064c57600080fd5b80636352211e1461053857806370a0823114610558578063715018a6146105785780637f51bb1f1461058d5780638da5cb5b146105ad57600080fd5b80632d2c5565116101bc57806340c10f191161018057806340c10f191461049e57806342842e0e146104be57806351cff8d9146104de57806355f804b3146104fe5780635c474f9e1461051e57600080fd5b80632d2c5565146103ff5780632f2ff15d1461041f57806332cb6b0c1461043f57806332dc2b2f1461046857806336568abe1461047e57600080fd5b806318160ddd1161020357806318160ddd1461032d5780631e7269c51461034257806323b872dd1461036f578063248a9ca31461038f5780632a55205a146103c057600080fd5b806301ffc9a71461024057806306fdde0314610275578063081812fc146102b0578063095ea7b3146102e85780630f2cdd6c1461030a575b600080fd5b34801561024c57600080fd5b5061026061025b366004611cef565b61078f565b60405190151581526020015b60405180910390f35b34801561028157600080fd5b506040805180820190915260098152684361736820436f777360b81b60208201525b60405161026c9190611d64565b3480156102bc57600080fd5b506102d06102cb366004611d77565b6107d5565b6040516001600160a01b03909116815260200161026c565b3480156102f457600080fd5b50610308610303366004611dac565b610819565b005b34801561031657600080fd5b5061031f600a81565b60405190815260200161026c565b34801561033957600080fd5b5060035461031f565b34801561034e57600080fd5b5061031f61035d366004611dd6565b60096020526000908152604090205481565b34801561037b57600080fd5b5061030861038a366004611df1565b6108a9565b34801561039b57600080fd5b5061031f6103aa366004611d77565b6000908152600160208190526040909120015490565b3480156103cc57600080fd5b506103e06103db366004611e2d565b6108ba565b604080516001600160a01b03909316835260208301919091520161026c565b34801561040b57600080fd5b50600c546102d0906001600160a01b031681565b34801561042b57600080fd5b5061030861043a366004611e4f565b61092b565b34801561044b57600080fd5b50610455611e6181565b60405161ffff909116815260200161026c565b34801561047457600080fd5b5061031f6103e881565b34801561048a57600080fd5b50610308610499366004611e4f565b610952565b3480156104aa57600080fd5b506103086104b9366004611dac565b6109d5565b3480156104ca57600080fd5b506103086104d9366004611df1565b610a79565b3480156104ea57600080fd5b506103086104f9366004611dd6565b610a94565b34801561050a57600080fd5b50610308610519366004611f1a565b610b50565b34801561052a57600080fd5b50600a546102609060ff1681565b34801561054457600080fd5b506102d0610553366004611d77565b610b8e565b34801561056457600080fd5b5061031f610573366004611dd6565b610c4b565b34801561058457600080fd5b50610308610c90565b34801561059957600080fd5b506103086105a8366004611dd6565b610cc6565b3480156105b957600080fd5b506000546001600160a01b03166102d0565b3480156105d757600080fd5b506102606105e6366004611e4f565b610d14565b3480156105f757600080fd5b506040805180820190915260038152624d4f4f60e81b60208201526102a3565b34801561062357600080fd5b5061031f600581565b34801561063857600080fd5b50610308610647366004611f73565b610d3f565b61030861065a366004611d77565b610d7e565b34801561066b57600080fd5b5061031f600081565b34801561068057600080fd5b5061030861068f366004611f8e565b610f28565b3480156106a057600080fd5b506102606106af366004611fb8565b610f33565b3480156106c057600080fd5b506103086106cf366004612071565b610fa0565b3480156106e057600080fd5b5061031f6611c37937e0800081565b3480156106fb57600080fd5b506102a361070a366004611d77565b610fac565b34801561071b57600080fd5b5061030861072a366004611e4f565b6110ab565b34801561073b57600080fd5b5061030861074a366004612071565b6110d2565b34801561075b57600080fd5b5061026061076a3660046120ed565b61112f565b34801561077b57600080fd5b5061030861078a366004611dd6565b61115d565b60006001600160e01b03198216635b5e139f60e01b14806107c057506001600160e01b0319821663152a902d60e11b145b806107cf57506107cf826111f8565b92915050565b60006107e08261121d565b6107fd57604051634a1850bf60e11b815260040160405180910390fd5b506000908152600660205260409020546001600160a01b031690565b600061082482610b8e565b9050806001600160a01b0316836001600160a01b031614156108595760405163250fdee360e21b815260040160405180910390fd5b336001600160a01b038216811480159061087a5750610878828261112f565b155b156108985760405163250fdee360e21b815260040160405180910390fd5b6108a3848484611232565b50505050565b6108b53384848461128e565b505050565b600c5460009081906001600160a01b031615806108dd57506108db8461121d565b155b156108fb5760405163574b16a760e11b815260040160405180910390fd5b600c546001600160a01b03166127106109166103e88661212d565b6109209190612162565b915091509250929050565b6000828152600160208190526040909120015461094881336112c1565b6108b58383611325565b6001600160a01b03811633146109c75760405162461bcd60e51b815260206004820152602f60248201527f416363657373436f6e74726f6c3a2063616e206f6e6c792072656e6f756e636560448201526e103937b632b9903337b91039b2b63360891b60648201526084015b60405180910390fd5b6109d18282611390565b5050565b7f9f2df0fed2c77648de5860a4cc508cd0818c85b8b8a1ab4ceeef8d981c8956a6610a0081336112c1565b600280541415610a225760405162461bcd60e51b81526004016109be90612176565b60028055811580610a475750611e6182610a3b60035490565b610a4591906121ad565b115b15610a655760405163574b16a760e11b815260040160405180910390fd5b610a6f83836113f7565b5050600160025550565b6108b583838360405180602001604052806000815250610fa0565b6000546001600160a01b03163314610abe5760405162461bcd60e51b81526004016109be906121c5565b600280541415610ae05760405162461bcd60e51b81526004016109be90612176565b60028055600b8054610af1906121fa565b15159050610b125760405163574b16a760e11b815260040160405180910390fd5b6040516001600160a01b038216904780156108fc02916000818181858888f19350505050158015610b47573d6000803e3d6000fd5b50506001600255565b7f850d585eb7f024ccee5e68e55f2c26cc72e1e6ee456acf62135757a5eb9d4a10610b7b81336112c1565b81516108b590600b906020850190611c40565b60008181526004602052604081205482906001600160a01b031615610bcb576000908152600460205260409020546001600160a01b031692915050565b600081118015610bdd57506003548111155b15610c31575b6000190180610bf157610c31565b6000818152600460205260409020546001600160a01b031615610c2c576000908152600460205260409020546001600160a01b031692915050565b610be3565b50604051634a1850bf60e11b815260040160405180910390fd5b60006001600160a01b038216610c74576040516316285dcb60e11b815260040160405180910390fd5b506001600160a01b031660009081526005602052604090205490565b6000546001600160a01b03163314610cba5760405162461bcd60e51b81526004016109be906121c5565b610cc46000611411565b565b7f850d585eb7f024ccee5e68e55f2c26cc72e1e6ee456acf62135757a5eb9d4a10610cf181336112c1565b50600c80546001600160a01b0319166001600160a01b0392909216919091179055565b60009182526001602090815260408084206001600160a01b0393909316845291905290205460ff1690565b7f850d585eb7f024ccee5e68e55f2c26cc72e1e6ee456acf62135757a5eb9d4a10610d6a81336112c1565b50600a805460ff1916911515919091179055565b600280541415610da05760405162461bcd60e51b81526004016109be90612176565b6002805533803b151580610db75750600a5460ff16155b80610dc0575081155b80610dee57506001600160a01b038116600090815260096020526040902054600a90610dec90846121ad565b115b80610e0d5750611e6182610e0160035490565b610e0b91906121ad565b115b15610e2b5760405163574b16a760e11b815260040160405180910390fd5b6001600160a01b03811660009081526009602052604090205460051115610ebf576001600160a01b038116600090815260096020526040812054610e70906005612235565b90508281108015610e9b5750346611c37937e08000610e8f8386612235565b610e99919061212d565b115b15610eb95760405163574b16a760e11b815260040160405180910390fd5b50610ef0565b34610ed16611c37937e080008461212d565b1115610ef05760405163574b16a760e11b815260040160405180910390fd5b6001600160a01b03811660009081526009602052604081208054849290610f189084906121ad565b90915550610b47905081836113f7565b6109d1338383611461565b6000805b8251811015610f9657610f62838281518110610f5557610f5561224c565b6020026020010151610b8e565b6001600160a01b0316846001600160a01b031614610f845760009150506107cf565b80610f8e81612262565b915050610f37565b5060019392505050565b6108a384848484611501565b6060610fb78261121d565b610fd45760405163574b16a760e11b815260040160405180910390fd5b6000600b8054610fe3906121fa565b90501161107a5760088054610ff7906121fa565b80601f0160208091040260200160405190810160405280929190818152602001828054611023906121fa565b80156110705780601f1061104557610100808354040283529160200191611070565b820191906000526020600020905b81548152906001019060200180831161105357829003601f168201915b50505050506107cf565b600b6110858361154e565b604051602001611096929190612299565b60405160208183030381529060405292915050565b600082815260016020819052604090912001546110c881336112c1565b6108b58383611390565b7f8502233096d909befbda0999bb8ea2f3a6be3c138b9fbf003752a4c8bce86f6c6110fd81336112c1565b333b61111c5760405163574b16a760e11b815260040160405180910390fd5b61112885858585611654565b5050505050565b6001600160a01b03918216600090815260076020908152604080832093909416825291909152205460ff1690565b6000546001600160a01b031633146111875760405162461bcd60e51b81526004016109be906121c5565b6001600160a01b0381166111ec5760405162461bcd60e51b815260206004820152602660248201527f4f776e61626c653a206e6577206f776e657220697320746865207a65726f206160448201526564647265737360d01b60648201526084016109be565b6111f581611411565b50565b60006001600160e01b031982166380ac58cd60e01b14806107cf57506107cf8261165f565b600080821180156107cf575050600354101590565b60008281526006602052604080822080546001600160a01b0319166001600160a01b0387811691821790925591518593918516917f8c5be1e5ebec7d5bd14f71427d1e84f3dd0314c0f7b2291e5b200ac8c7c3b92591a4505050565b611299848285611694565b6112b65760405163574b16a760e11b815260040160405180910390fd5b6108a38383836116df565b6112cb8282610d14565b6109d1576112e3816001600160a01b03166014611829565b6112ee836020611829565b6040516020016112ff929190612354565b60408051601f198184030181529082905262461bcd60e51b82526109be91600401611d64565b61132f8282610d14565b6109d15760008281526001602081815260408084206001600160a01b0386168086529252808420805460ff19169093179092559051339285917f2f8788117e7eff1d82e926ec794901d17c78024a50270940304540a733656f0d9190a45050565b61139a8282610d14565b156109d15760008281526001602090815260408083206001600160a01b0385168085529252808320805460ff1916905551339285917ff6391f5c32d9c69d2a47ea670b442974b53935d1edc7fd64eb21e047a839171b9190a45050565b6109d18282604051806020016040528060008152506119cc565b600080546001600160a01b038381166001600160a01b0319831681178455604051919092169283917f8be0079c531659141344cd1fd0a4f28419497f9722a3daafe3b4186f6b6457e09190a35050565b816001600160a01b0316836001600160a01b031614156114945760405163079f14e360e51b815260040160405180910390fd5b6001600160a01b03838116600081815260076020908152604080832094871680845294825291829020805460ff191686151590811790915591519182527f17307eab39ab6107e8899845ad3d59bd9653f200f220920489ca2b5937696c31910160405180910390a3505050565b61150d3385858561128e565b6000836001600160a01b03163b118015611530575061152e848484846119d9565b155b156108a357604051631f11849560e21b815260040160405180910390fd5b6060816115725750506040805180820190915260018152600360fc1b602082015290565b8160005b811561159c578061158681612262565b91506115959050600a83612162565b9150611576565b60008167ffffffffffffffff8111156115b7576115b7611e7b565b6040519080825280601f01601f1916602001820160405280156115e1576020820181803683370190505b5090505b841561164c576115f6600183612235565b9150611603600a866123c9565b61160e9060306121ad565b60f81b8183815181106116235761162361224c565b60200101906001600160f81b031916908160001a905350611645600a86612162565b94506115e5565b949350505050565b61150d8484846116df565b60006001600160e01b03198216637965db0b60e01b14806107cf57506301ffc9a760e01b6001600160e01b03198316146107cf565b6000816001600160a01b0316846001600160a01b031614806116cf5750836001600160a01b03166116c4846107d5565b6001600160a01b0316145b8061164c575061164c828561112f565b6001600160a01b038216158061170f57506116f981610b8e565b6001600160a01b0316836001600160a01b031614155b1561172d5760405163574b16a760e11b815260040160405180910390fd5b61173960008285611232565b6001600160a01b03808316600081815260056020908152604080832080546001908101909155948816835280832080546000190190558583526004909152902080546001600160a01b03191690911790556003549082019081118015906117b557506000818152600460205260409020546001600160a01b0316155b156117e257600081815260046020526040902080546001600160a01b0319166001600160a01b0386161790555b5080826001600160a01b0316846001600160a01b03167fddf252ad1be2c89b69c2b068fc378daa952ba7f163c4a11628f55a4df523b3ef60405160405180910390a4505050565b6060600061183883600261212d565b6118439060026121ad565b67ffffffffffffffff81111561185b5761185b611e7b565b6040519080825280601f01601f191660200182016040528015611885576020820181803683370190505b509050600360fc1b816000815181106118a0576118a061224c565b60200101906001600160f81b031916908160001a905350600f60fb1b816001815181106118cf576118cf61224c565b60200101906001600160f81b031916908160001a90535060006118f384600261212d565b6118fe9060016121ad565b90505b6001811115611976576f181899199a1a9b1b9c1cb0b131b232b360811b85600f16601081106119325761193261224c565b1a60f81b8282815181106119485761194861224c565b60200101906001600160f81b031916908160001a90535060049490941c9361196f816123dd565b9050611901565b5083156119c55760405162461bcd60e51b815260206004820181905260248201527f537472696e67733a20686578206c656e67746820696e73756666696369656e7460448201526064016109be565b9392505050565b6108b58383836001611ad0565b604051630a85bd0160e11b81526000906001600160a01b0385169063150b7a0290611a0e9033908990889088906004016123f4565b602060405180830381600087803b158015611a2857600080fd5b505af1925050508015611a58575060408051601f3d908101601f19168201909252611a5591810190612431565b60015b611ab3573d808015611a86576040519150601f19603f3d011682016040523d82523d6000602084013e611a8b565b606091505b508051611aab57604051630568cbab60e01b815260040160405180910390fd5b805181602001fd5b6001600160e01b031916630a85bd0160e11b149050949350505050565b821580611ae457506001600160a01b038416155b15611b025760405163574b16a760e11b815260040160405180910390fd5b60006003546001611b1391906121ad565b905060038054850190556001600160a01b03851660008181526005602090815260408083208054890190558483526004909152902080546001600160a01b031916909117905580848101838015611b7457506000876001600160a01b03163b115b15611bf2575b60405182906001600160a01b038916906000907fddf252ad1be2c89b69c2b068fc378daa952ba7f163c4a11628f55a4df523b3ef908290a4611bc560008884806001019550886119d9565b611be257604051631f11849560e21b815260040160405180910390fd5b80821415611b7a575050506108a3565b5b6040516001830192906001600160a01b038916906000907fddf252ad1be2c89b69c2b068fc378daa952ba7f163c4a11628f55a4df523b3ef908290a480821415611bf35750505050505050565b828054611c4c906121fa565b90600052602060002090601f016020900481019282611c6e5760008555611cb4565b82601f10611c8757805160ff1916838001178555611cb4565b82800160010185558215611cb4579182015b82811115611cb4578251825591602001919060010190611c99565b50611cc0929150611cc4565b5090565b5b80821115611cc05760008155600101611cc5565b6001600160e01b0319811681146111f557600080fd5b600060208284031215611d0157600080fd5b81356119c581611cd9565b60005b83811015611d27578181015183820152602001611d0f565b838111156108a35750506000910152565b60008151808452611d50816020860160208601611d0c565b601f01601f19169290920160200192915050565b6020815260006119c56020830184611d38565b600060208284031215611d8957600080fd5b5035919050565b80356001600160a01b0381168114611da757600080fd5b919050565b60008060408385031215611dbf57600080fd5b611dc883611d90565b946020939093013593505050565b600060208284031215611de857600080fd5b6119c582611d90565b600080600060608486031215611e0657600080fd5b611e0f84611d90565b9250611e1d60208501611d90565b9150604084013590509250925092565b60008060408385031215611e4057600080fd5b50508035926020909101359150565b60008060408385031215611e6257600080fd5b82359150611e7260208401611d90565b90509250929050565b634e487b7160e01b600052604160045260246000fd5b604051601f8201601f1916810167ffffffffffffffff81118282101715611eba57611eba611e7b565b604052919050565b600067ffffffffffffffff831115611edc57611edc611e7b565b611eef601f8401601f1916602001611e91565b9050828152838383011115611f0357600080fd5b828260208301376000602084830101529392505050565b600060208284031215611f2c57600080fd5b813567ffffffffffffffff811115611f4357600080fd5b8201601f81018413611f5457600080fd5b61164c84823560208401611ec2565b80358015158114611da757600080fd5b600060208284031215611f8557600080fd5b6119c582611f63565b60008060408385031215611fa157600080fd5b611faa83611d90565b9150611e7260208401611f63565b60008060408385031215611fcb57600080fd5b611fd483611d90565b915060208084013567ffffffffffffffff80821115611ff257600080fd5b818601915086601f83011261200657600080fd5b81358181111561201857612018611e7b565b8060051b9150612029848301611e91565b818152918301840191848101908984111561204357600080fd5b938501935b8385101561206157843582529385019390850190612048565b8096505050505050509250929050565b6000806000806080858703121561208757600080fd5b61209085611d90565b935061209e60208601611d90565b925060408501359150606085013567ffffffffffffffff8111156120c157600080fd5b8501601f810187136120d257600080fd5b6120e187823560208401611ec2565b91505092959194509250565b6000806040838503121561210057600080fd5b61210983611d90565b9150611e7260208401611d90565b634e487b7160e01b600052601160045260246000fd5b600081600019048311821515161561214757612147612117565b500290565b634e487b7160e01b600052601260045260246000fd5b6000826121715761217161214c565b500490565b6020808252601f908201527f5265656e7472616e637947756172643a207265656e7472616e742063616c6c00604082015260600190565b600082198211156121c0576121c0612117565b500190565b6020808252818101527f4f776e61626c653a2063616c6c6572206973206e6f7420746865206f776e6572604082015260600190565b600181811c9082168061220e57607f821691505b6020821081141561222f57634e487b7160e01b600052602260045260246000fd5b50919050565b60008282101561224757612247612117565b500390565b634e487b7160e01b600052603260045260246000fd5b600060001982141561227657612276612117565b5060010190565b6000815161228f818560208601611d0c565b9290920192915050565b600080845481600182811c9150808316806122b557607f831692505b60208084108214156122d557634e487b7160e01b86526022600452602486fd5b8180156122e957600181146122fa57612327565b60ff19861689528489019650612327565b60008b81526020902060005b8681101561231f5781548b820152908501908301612306565b505084890196505b50505050505061234b61233a828661227d565b64173539b7b760d91b815260050190565b95945050505050565b7f416363657373436f6e74726f6c3a206163636f756e742000000000000000000081526000835161238c816017850160208801611d0c565b7001034b99036b4b9b9b4b733903937b6329607d1b60179184019182015283516123bd816028840160208801611d0c565b01602801949350505050565b6000826123d8576123d861214c565b500690565b6000816123ec576123ec612117565b506000190190565b6001600160a01b038581168252841660208201526040810183905260806060820181905260009061242790830184611d38565b9695505050505050565b60006020828403121561244357600080fd5b81516119c581611cd956fea2646970667358221220121355726c45519d50472dc5ce315256fd43068e385cbd3618a118c4a7b06d6164736f6c63430008090033",
  "linkReferences": {},
  "deployedLinkReferences": {}
}