{
  "_format": "hh-sol-artifact-1",
  "contractName": "Royalty4All",
  "sourceName": "contracts/CashCows/Royalty4All.sol",
  "abi": [
    {
      "inputs": [
        {
          "internalType": "contract IERC721OwnsAll",
          "name": "tether",
          "type": "address"
        }
      ],
      "stateMutability": "payable",
      "type": "constructor"
    },
    {
      "inputs": [],
      "name": "InvalidCall",
      "type": "error"
    },
    {
      "anonymous": false,
      "inputs": [
        {
          "indexed": true,
          "internalType": "contract IERC20",
          "name": "token",
          "type": "address"
        },
        {
          "indexed": false,
          "internalType": "address",
          "name": "to",
          "type": "address"
        },
        {
          "indexed": false,
          "internalType": "uint256",
          "name": "amount",
          "type": "uint256"
        }
      ],
      "name": "ERC20PaymentReleased",
      "type": "event"
    },
    {
      "anonymous": false,
      "inputs": [
        {
          "indexed": false,
          "internalType": "address",
          "name": "account",
          "type": "address"
        },
        {
          "indexed": false,
          "internalType": "uint256",
          "name": "shares",
          "type": "uint256"
        }
      ],
      "name": "PayeeAdded",
      "type": "event"
    },
    {
      "anonymous": false,
      "inputs": [
        {
          "indexed": false,
          "internalType": "address",
          "name": "from",
          "type": "address"
        },
        {
          "indexed": false,
          "internalType": "uint256",
          "name": "amount",
          "type": "uint256"
        }
      ],
      "name": "PaymentReceived",
      "type": "event"
    },
    {
      "anonymous": false,
      "inputs": [
        {
          "indexed": false,
          "internalType": "address",
          "name": "to",
          "type": "address"
        },
        {
          "indexed": false,
          "internalType": "uint256",
          "name": "amount",
          "type": "uint256"
        }
      ],
      "name": "PaymentReleased",
      "type": "event"
    },
    {
      "inputs": [],
      "name": "TETHER",
      "outputs": [
        {
          "internalType": "contract IERC721OwnsAll",
          "name": "",
          "type": "address"
        }
      ],
      "stateMutability": "view",
      "type": "function"
    },
    {
      "inputs": [],
      "name": "TOTAL_SHARES",
      "outputs": [
        {
          "internalType": "uint16",
          "name": "",
          "type": "uint16"
        }
      ],
      "stateMutability": "view",
      "type": "function"
    },
    {
      "inputs": [
        {
          "internalType": "uint256",
          "name": "tokenId",
          "type": "uint256"
        }
      ],
      "name": "payee",
      "outputs": [
        {
          "internalType": "address",
          "name": "",
          "type": "address"
        }
      ],
      "stateMutability": "view",
      "type": "function"
    },
    {
      "inputs": [
        {
          "internalType": "contract IERC20",
          "name": "token",
          "type": "address"
        },
        {
          "internalType": "uint256",
          "name": "tokenId",
          "type": "uint256"
        }
      ],
      "name": "release",
      "outputs": [],
      "stateMutability": "nonpayable",
      "type": "function"
    },
    {
      "inputs": [
        {
          "internalType": "uint256",
          "name": "tokenId",
          "type": "uint256"
        }
      ],
      "name": "release",
      "outputs": [],
      "stateMutability": "nonpayable",
      "type": "function"
    },
    {
      "inputs": [
        {
          "internalType": "uint256[]",
          "name": "tokenIds",
          "type": "uint256[]"
        }
      ],
      "name": "releaseBatch",
      "outputs": [],
      "stateMutability": "nonpayable",
      "type": "function"
    },
    {
      "inputs": [
        {
          "internalType": "contract IERC20",
          "name": "token",
          "type": "address"
        },
        {
          "internalType": "uint256[]",
          "name": "tokenIds",
          "type": "uint256[]"
        }
      ],
      "name": "releaseBatch",
      "outputs": [],
      "stateMutability": "nonpayable",
      "type": "function"
    },
    {
      "inputs": [
        {
          "internalType": "uint256",
          "name": "tokenId",
          "type": "uint256"
        }
      ],
      "name": "releaseable",
      "outputs": [
        {
          "internalType": "uint256",
          "name": "",
          "type": "uint256"
        }
      ],
      "stateMutability": "view",
      "type": "function"
    },
    {
      "inputs": [
        {
          "internalType": "contract IERC20",
          "name": "token",
          "type": "address"
        },
        {
          "internalType": "uint256",
          "name": "tokenId",
          "type": "uint256"
        }
      ],
      "name": "releaseable",
      "outputs": [
        {
          "internalType": "uint256",
          "name": "",
          "type": "uint256"
        }
      ],
      "stateMutability": "view",
      "type": "function"
    },
    {
      "inputs": [
        {
          "internalType": "contract IERC20",
          "name": "token",
          "type": "address"
        },
        {
          "internalType": "uint256[]",
          "name": "tokenIds",
          "type": "uint256[]"
        }
      ],
      "name": "releaseableBatch",
      "outputs": [
        {
          "internalType": "uint256",
          "name": "totalReleaseable",
          "type": "uint256"
        }
      ],
      "stateMutability": "view",
      "type": "function"
    },
    {
      "inputs": [
        {
          "internalType": "uint256[]",
          "name": "tokenIds",
          "type": "uint256[]"
        }
      ],
      "name": "releaseableBatch",
      "outputs": [
        {
          "internalType": "uint256",
          "name": "totalReleaseable",
          "type": "uint256"
        }
      ],
      "stateMutability": "view",
      "type": "function"
    },
    {
      "inputs": [
        {
          "internalType": "uint256",
          "name": "tokenId",
          "type": "uint256"
        }
      ],
      "name": "released",
      "outputs": [
        {
          "internalType": "uint256",
          "name": "",
          "type": "uint256"
        }
      ],
      "stateMutability": "view",
      "type": "function"
    },
    {
      "inputs": [
        {
          "internalType": "contract IERC20",
          "name": "token",
          "type": "address"
        },
        {
          "internalType": "uint256",
          "name": "tokenId",
          "type": "uint256"
        }
      ],
      "name": "released",
      "outputs": [
        {
          "internalType": "uint256",
          "name": "",
          "type": "uint256"
        }
      ],
      "stateMutability": "view",
      "type": "function"
    },
    {
      "inputs": [
        {
          "internalType": "address",
          "name": "account",
          "type": "address"
        }
      ],
      "name": "shares",
      "outputs": [
        {
          "internalType": "uint256",
          "name": "",
          "type": "uint256"
        }
      ],
      "stateMutability": "view",
      "type": "function"
    },
    {
      "inputs": [
        {
          "internalType": "contract IERC20",
          "name": "token",
          "type": "address"
        }
      ],
      "name": "totalReleased",
      "outputs": [
        {
          "internalType": "uint256",
          "name": "",
          "type": "uint256"
        }
      ],
      "stateMutability": "view",
      "type": "function"
    },
    {
      "inputs": [],
      "name": "totalReleased",
      "outputs": [
        {
          "internalType": "uint256",
          "name": "",
          "type": "uint256"
        }
      ],
      "stateMutability": "view",
      "type": "function"
    },
    {
      "stateMutability": "payable",
      "type": "receive"
    }
  ],
  "bytecode": "0x60a060405260405161155b38038061155b83398101604081905261002291610038565b60016000556001600160a01b0316608052610068565b60006020828403121561004a57600080fd5b81516001600160a01b038116811461006157600080fd5b9392505050565b6080516114bc61009f6000396000818161024c01528181610585015281816109e601528181610bf20152610c9601526114bc6000f3fe6080604052600436106100f75760003560e01c80637d237eac1161008a578063ce7c2ac211610059578063ce7c2ac21461031c578063cfe830701461033c578063d79779b21461037f578063e33b7de3146103b557600080fd5b80637d237eac1461028657806385e3f997146102a65780638b83209b146102cf578063a94d373b146102ef57600080fd5b80633db9f02a116100c65780633db9f02a146101da5780636582f4fa146101fa5780636e8790e61461021a57806378e7e3d11461023a57600080fd5b80630357371d146101455780631908fc5a146101675780631e1ee1281461019a57806337bdc99b146101ba57600080fd5b36610140577f6ef95f06320e7a25a04a175ca677b7052bdd97131872c2192525a629f51be77033604080516001600160a01b0390921682523460208301520160405180910390a1005b600080fd5b34801561015157600080fd5b506101656101603660046110fd565b6103ca565b005b34801561017357600080fd5b506101876101823660046111cf565b61051f565b6040519081526020015b60405180910390f35b3480156101a657600080fd5b506101656101b536600461121f565b610574565b3480156101c657600080fd5b506101656101d5366004611254565b61074b565b3480156101e657600080fd5b506101876101f536600461121f565b610867565b34801561020657600080fd5b50610187610215366004611254565b6108ad565b34801561022657600080fd5b506101876102353660046110fd565b6108df565b34801561024657600080fd5b5061026e7f000000000000000000000000000000000000000000000000000000000000000081565b6040516001600160a01b039091168152602001610191565b34801561029257600080fd5b506101656102a13660046111cf565b6109ad565b3480156102b257600080fd5b506102bc611e6181565b60405161ffff9091168152602001610191565b3480156102db57600080fd5b5061026e6102ea366004611254565b610bd9565b3480156102fb57600080fd5b5061018761030a366004611254565b60009081526002602052604090205490565b34801561032857600080fd5b5061018761033736600461126d565b610c74565b34801561034857600080fd5b506101876103573660046110fd565b6001600160a01b03919091166000908152600460209081526040808320938352929052205490565b34801561038b57600080fd5b5061018761039a36600461126d565b6001600160a01b031660009081526003602052604090205490565b3480156103c157600080fd5b50600154610187565b600260005414156103f65760405162461bcd60e51b81526004016103ed9061128a565b60405180910390fd5b6002600090815561040682610bd9565b90506001600160a01b03811633146104315760405163574b16a760e11b815260040160405180910390fd5b600061043d84846108df565b90508061045d5760405163574b16a760e11b815260040160405180910390fd5b6001600160a01b0384166000908152600460209081526040808320868452909152812080548392906104909084906112d7565b90915550506001600160a01b038416600090815260036020526040812080548392906104bd9084906112d7565b909155506104ce9050848383610d12565b604080516001600160a01b038481168252602082018490528616917f3be5b7a71e84ed12875d241991c70855ac5817d847039e17a9d895c1ceb0f18a910160405180910390a2505060016000555050565b6000805b825181101561056d5761054f84848381518110610542576105426112ef565b60200260200101516108df565b61055990836112d7565b91508061056581611305565b915050610523565b5092915050565b60405163ad94d90160e01b815233907f00000000000000000000000000000000000000000000000000000000000000006001600160a01b03169063ad94d901906105c49084908690600401611320565b60206040518083038186803b1580156105dc57600080fd5b505afa1580156105f0573d6000803e3d6000fd5b505050506040513d601f19601f820116820180604052508101906106149190611376565b6106315760405163574b16a760e11b815260040160405180910390fd5b60008060005b84518110156106c257610662858281518110610655576106556112ef565b60200260200101516108ad565b92508261066e576106b0565b8260026000878481518110610685576106856112ef565b6020026020010151815260200190815260200160002060008282546106aa91906112d7565b90915550505b806106ba81611305565b915050610637565b50806106e15760405163574b16a760e11b815260040160405180910390fd5b80600160008282546106f391906112d7565b9091555061070390508382610d69565b604080516001600160a01b0385168152602081018390527fdf20fd1e76bc69d672e4814fafb2c449bba3a5369d8359adf9e05e6fde87b056910160405180910390a150505050565b6002600054141561076e5760405162461bcd60e51b81526004016103ed9061128a565b6002600090815561077e82610bd9565b90506001600160a01b03811633146107a95760405163574b16a760e11b815260040160405180910390fd5b60006107b4836108ad565b9050806107d45760405163574b16a760e11b815260040160405180910390fd5b600083815260026020526040812080548392906107f29084906112d7565b92505081905550806001600082825461080b91906112d7565b9091555061081b90508282610d69565b604080516001600160a01b0384168152602081018390527fdf20fd1e76bc69d672e4814fafb2c449bba3a5369d8359adf9e05e6fde87b056910160405180910390a15050600160005550565b6000805b82518110156108a757610889838281518110610655576106556112ef565b61089390836112d7565b91508061089f81611305565b91505061086b565b50919050565b60006108d96108bb60015490565b6108c590476112d7565b600084815260026020526040902054610e82565b92915050565b6001600160a01b0382166000908152600360205260408120546109a6906040516370a0823160e01b81523060048201526001600160a01b038616906370a082319060240160206040518083038186803b15801561093b57600080fd5b505afa15801561094f573d6000803e3d6000fd5b505050506040513d601f19601f820116820180604052508101906109739190611398565b61097d91906112d7565b6001600160a01b0385166000908152600460209081526040808320878452909152902054610e82565b9392505050565b600260005414156109d05760405162461bcd60e51b81526004016103ed9061128a565b600260005560405163ad94d90160e01b815233907f00000000000000000000000000000000000000000000000000000000000000006001600160a01b03169063ad94d90190610a259084908690600401611320565b60206040518083038186803b158015610a3d57600080fd5b505afa158015610a51573d6000803e3d6000fd5b505050506040513d601f19601f82011682018060405250810190610a759190611376565b610a925760405163574b16a760e11b815260040160405180910390fd5b60008060005b8451811015610b2f57610ab786868381518110610542576105426112ef565b925082610ac357610b1d565b6001600160a01b03861660009081526004602052604081208651859290889085908110610af257610af26112ef565b602002602001015181526020019081526020016000206000828254610b1791906112d7565b90915550505b80610b2781611305565b915050610a98565b5080610b4e5760405163574b16a760e11b815260040160405180910390fd5b6001600160a01b03851660009081526003602052604081208054839290610b769084906112d7565b90915550610b879050858483610d12565b604080516001600160a01b038581168252602082018590528716917f3be5b7a71e84ed12875d241991c70855ac5817d847039e17a9d895c1ceb0f18a910160405180910390a250506001600055505050565b6040516331a9108f60e11b8152600481018290526000907f00000000000000000000000000000000000000000000000000000000000000006001600160a01b031690636352211e9060240160206040518083038186803b158015610c3c57600080fd5b505afa158015610c50573d6000803e3d6000fd5b505050506040513d601f19601f820116820180604052508101906108d991906113b1565b6040516370a0823160e01b81526001600160a01b0382811660048301526000917f0000000000000000000000000000000000000000000000000000000000000000909116906370a082319060240160206040518083038186803b158015610cda57600080fd5b505afa158015610cee573d6000803e3d6000fd5b505050506040513d601f19601f820116820180604052508101906108d99190611398565b604080516001600160a01b038416602482015260448082018490528251808303909101815260649091019091526020810180516001600160e01b031663a9059cbb60e01b179052610d64908490610e9b565b505050565b80471015610db95760405162461bcd60e51b815260206004820152601d60248201527f416464726573733a20696e73756666696369656e742062616c616e636500000060448201526064016103ed565b6000826001600160a01b03168260405160006040518083038185875af1925050503d8060008114610e06576040519150601f19603f3d011682016040523d82523d6000602084013e610e0b565b606091505b5050905080610d645760405162461bcd60e51b815260206004820152603a60248201527f416464726573733a20756e61626c6520746f2073656e642076616c75652c207260448201527f6563697069656e74206d6179206861766520726576657274656400000000000060648201526084016103ed565b600081610e91611e61856113ce565b6109a691906113f0565b6000610ef0826040518060400160405280602081526020017f5361666545524332303a206c6f772d6c6576656c2063616c6c206661696c6564815250856001600160a01b0316610f6d9092919063ffffffff16565b805190915015610d645780806020019051810190610f0e9190611376565b610d645760405162461bcd60e51b815260206004820152602a60248201527f5361666545524332303a204552433230206f7065726174696f6e20646964206e6044820152691bdd081cdd58d8d9595960b21b60648201526084016103ed565b6060610f7c8484600085610f84565b949350505050565b606082471015610fe55760405162461bcd60e51b815260206004820152602660248201527f416464726573733a20696e73756666696369656e742062616c616e636520666f6044820152651c8818d85b1b60d21b60648201526084016103ed565b843b6110335760405162461bcd60e51b815260206004820152601d60248201527f416464726573733a2063616c6c20746f206e6f6e2d636f6e747261637400000060448201526064016103ed565b600080866001600160a01b0316858760405161104f9190611437565b60006040518083038185875af1925050503d806000811461108c576040519150601f19603f3d011682016040523d82523d6000602084013e611091565b606091505b50915091506110a18282866110ac565b979650505050505050565b606083156110bb5750816109a6565b8251156110cb5782518084602001fd5b8160405162461bcd60e51b81526004016103ed9190611453565b6001600160a01b03811681146110fa57600080fd5b50565b6000806040838503121561111057600080fd5b823561111b816110e5565b946020939093013593505050565b634e487b7160e01b600052604160045260246000fd5b600082601f83011261115057600080fd5b8135602067ffffffffffffffff8083111561116d5761116d611129565b8260051b604051601f19603f8301168101818110848211171561119257611192611129565b6040529384528581018301938381019250878511156111b057600080fd5b83870191505b848210156110a1578135835291830191908301906111b6565b600080604083850312156111e257600080fd5b82356111ed816110e5565b9150602083013567ffffffffffffffff81111561120957600080fd5b6112158582860161113f565b9150509250929050565b60006020828403121561123157600080fd5b813567ffffffffffffffff81111561124857600080fd5b610f7c8482850161113f565b60006020828403121561126657600080fd5b5035919050565b60006020828403121561127f57600080fd5b81356109a6816110e5565b6020808252601f908201527f5265656e7472616e637947756172643a207265656e7472616e742063616c6c00604082015260600190565b634e487b7160e01b600052601160045260246000fd5b600082198211156112ea576112ea6112c1565b500190565b634e487b7160e01b600052603260045260246000fd5b6000600019821415611319576113196112c1565b5060010190565b6001600160a01b038316815260406020808301829052835191830182905260009184820191906060850190845b818110156113695784518352938301939183019160010161134d565b5090979650505050505050565b60006020828403121561138857600080fd5b815180151581146109a657600080fd5b6000602082840312156113aa57600080fd5b5051919050565b6000602082840312156113c357600080fd5b81516109a6816110e5565b6000826113eb57634e487b7160e01b600052601260045260246000fd5b500490565b600082821015611402576114026112c1565b500390565b60005b8381101561142257818101518382015260200161140a565b83811115611431576000848401525b50505050565b60008251611449818460208701611407565b9190910192915050565b6020815260008251806020840152611472816040850160208701611407565b601f01601f1916919091016040019291505056fea2646970667358221220f3a34bca3bfb6add597c83c3a387cd8596aed5a3e3dd7b5acc91ae954f9c7a2a64736f6c63430008090033",
  "linkReferences": {},
  "deployedLinkReferences": {}
}